:020000040800F2
:1000000018070020890100081B1000083B0F00089A
:10001000191000088F0200084518000800000000B1
:10002000000000000000000000000000E1170008D0
:100030009D020008000000001D100008E3170008E2
:10004000A3010008A3010008A3010008A301000800
:10005000A3010008A3010008A3010008A3010008F0
:10006000A3010008A3010008A3010008A3010008E0
:10007000A301000891020008A3010008A3010008E1
:10008000A3010008A3010008A3010008A3010008C0
:10009000A3010008A3010008A3010008A3010008B0
:1000A000A3010008A3010008A3010008A3010008A0
:1000B000A3010008A3010008A3010008A301000890
:1000C000A3010008A3010008A3010008A301000880
:1000D000A3010008A3010008A3010008A301000870
:1000E000A3010008A3010008A301000800F002F822
:1000F00000F03AF80AA090E8000C82448344AAF188
:100100000107DA4501D100F02FF8AFF2090EBAE885
:100110000F0013F0010F18BFFB1A43F0010318473B
:10012000C8A50000E8A50000103A24BF78C878C12F
:10013000FAD8520724BF30C830C144BF04680C60ED
:10014000704700000023002400250026103A28BF35
:1001500078C1FBD8520728BF30C148BF0B60704739
:100160001FB51FBD10B510BD00F058F81146FFF7C0
:10017000F7FF01F079FB00F076F803B4FFF7F2FF28
:1001800003BC00F07DF8000009488047094800479B
:10019000FEE7FEE7FEE7FEE7FEE7FEE7FEE7FEE737
:1001A000FEE7FEE704480549054A064B7047000094
:1001B00043180008ED00000818010020180700206F
:1001C00018030020180300204FF0000200B513466A
:1001D00094469646203922BFA0E80C50A0E80C5067
:1001E000B1F12001BFF4F7AF090728BFA0E80C5018
:1001F00048BF0CC05DF804EB890028BF40F8042B11
:1002000008BF704748BF20F8022B11F0804F18BF7D
:1002100000F8012B7047704770477047754600F033
:100220002BF8AE4605006946534620F00700854688
:1002300018B020B5FFF7B6FFBDE820404FF000062C
:100240004FF000074FF000084FF0000B21F00701BE
:10025000AC46ACE8C009ACE8C009ACE8C009ACE801
:10026000C0098D46704710B50446AFF300802046A4
:10027000BDE81040FFF781BF00487047B400002080
:1002800001491820ABBEFEE7260002007047FEE7DA
:10029000014800F007B8000070000020704772B6F7
:1002A000FEE700002DE9F05FC16B0C6801680B6888
:1002B000D0F840C0042202FA0CF2494DDFF824A124
:1002C000494E4A4FDFF828B1DFF828E122422CD00E
:1002D0005A072AD50A68920603D40A6822F0040253
:1002E0000A600168A94201D1042219E0514501D1F7
:1002F000402215E0B14202D14FF4806210E0B942D1
:1003000002D14FF480420BE0594502D14FF48022D4
:1003100006E0714502D14FF4800201E04FF08062A7
:100320002F4908394A60C16A3BE04FF0020808FAD9
:100330000CF818EA040F4FF000094FF0010235D015
:100340005FEA837832D50B689B0605D40B6823F0EF
:100350000A030B6080F821200168A94201D1022222
:1003600019E0514501D1202215E0B14202D14FF4EC
:10037000007210E0B94202D14FF400520BE059452F
:1003800002D14FF4003206E0714502D14FF4001261
:1003900001E04FF00072124908394A6080F820905D
:1003A000816A00291AD0BDE8F05F0847082505FAE0
:1003B0000CF5254212D01B0710D50B6823F00E0355
:1003C0000B6090F84010C36B02FA01F15960826330
:1003D00080F8212080F82090016BE2E7BDE8F09FD3
:1003E000080002401C00024030000240440002406D
:1003F000580002406C00024030B528B308C81349C9
:1004000014221944B1FBF2F18900C16310498163E0
:10041000022141771A6843F6F0718A43D0E900144B
:100420002143D0E902452C43214304692143446917
:100430002143846921431143196000214163012252
:1004400042770177084630BD012030BDF8FFFDBF7F
:100450000000024070B5044600F004F90546601C37
:1004600002D004480078044400F0FCF8401BA0428D
:10047000FAD370BD080000202DE9F84FDFF8B891DD
:10048000002409F1040A0AF1040B23460F270BF19B
:10049000040EC9E00125A5402A40AA427DD1674E3D
:1004A000D1F804C0ACEB0608B44532D014DCBCF182
:1004B000030F3AD009DCBCF1000F2AD0BCF1010FC8
:1004C0001CD0BCF1020F31D11DE0BCF1110F17D0CF
:1004D000BCF1120F2AD119E0B8F5881F19D006DC3B
:1004E000B8F5803F15D0B8F5801F1FD111E0B8F5E1
:1004F000001F0ED0B8F5041F18D10AE0CB6815E034
:10050000CB681B1D12E0CB6808330FE0CB680C33BF
:100510000CE08B682BB1012B4FF0080303D0456131
:1005200004E0042302E0056100E00023FF2A01D873
:10053000064601E000F104064FEA840501D9A5F161
:100540002005D6F8008007FA05FC28EA0C0803FA13
:1005500005F548EA0508C6F800804D68ED0062D54B
:10056000374DAE6946F00106AE61AD6924F0030671
:1005700005F001050095334D06EB050CDCF808503D
:10058000A607360F07FA06F825EA0805DFF8B8804F
:10059000404503D14FF0000817E044E0DFF8AC809D
:1005A000404502D14FF001080FE0DFF8A48040453C
:1005B00002D14FF0020808E0DFF89880404502D1F0
:1005C0004FF0030801E04FF0040808FA06F848EA83
:1005D0000508CCF808804D68D9F80060ED034D4659
:1005E00001D5164300E096432E604D68DAF80060AE
:1005F000AD03554601D5164300E096432E604D6885
:10060000DBF80060ED025D4601D5164300E096433D
:100610002E604D68DEF80060AD02754601D51643C8
:1006200000E096432E60641C0D682A46E5407FF486
:1006300031AFBDE8F88F0000000401400000111048
:10064000001002400000014000080140000C014081
:1006500000100140001401400AB101617047090413
:10066000FBE7000001488068704700000800002098
:1006700002488168027811448160704708000020B8
:10068000074810B5016841F010010160032000F037
:1006900075F80F2000F006F800F024F8002010BDD7
:1006A0000020024070B50D4D04464FF47A71287851
:1006B000B1FBF0F00A490968B1FBF0F000F029FC49
:1006C00048B9102C07D200222146501E00F036F8FF
:1006D00000206C6070BD012070BD0000080000208B
:1006E000140000200C4808B5816941F001018161C6
:1006F000816901F001010091C16941F08051C1613E
:10070000C06900F0805000900448416821F0E06129
:1007100041F00071416008BD00100240000001403E
:10072000002809DB00F01F020121914040098000F0
:1007300000F1E020C0F8001170470000F0B40E4B4B
:100740001B680C46C3F30223C3F10705042D00D92F
:100750000425191D072901D2002300E0DB1E012614
:1007600006FA05F1491E214099409E40761E16402A
:100770003143F0BC01F067B80CED00E0064900F031
:10078000070208684FF6FF03184040EA0220034AB8
:1007900010430860704700000CED00E00000FA050F
:1007A0002DE9F0470F46050061D0434E306800F058
:1007B0000700B84209D2306820F0070038433060A3
:1007C000306800F00700B84251D128683B4C8107DF
:1007D00012D5400703D5606840F4E0606060287877
:1007E000000703D5606840F4605060606068A968E5
:1007F00020F0F000084360602878C00728D06868BF
:10080000012810D02168022810D0890700292EDA8B
:10081000616821F0030101436160FFF723FF804617
:1008200041F288390DE021688903EFE78901EDE79E
:10083000FFF718FFA0EB0801494502D90320BDE8E6
:10084000F0876068696800F00C00B0EB810FEFD1B1
:10085000306800F00700B8420BD9306820F007007C
:1008600038433060306800F00700B84201D0012002
:10087000E5E72878400705D56068E96820F4E0607E
:10088000084360602878000706D56068296920F46D
:10089000605040EAC100606000F018F86168084AE2
:1008A000C1F30311515CC84006490860064800685E
:1008B000FFF7F8FE0020C2E70020024000100240CF
:1008C000D7A60008140000200C00002012A185B05B
:1008D0000FC98DE80F0014A0144A006804905168F5
:1008E000134801F00C03042B10D0082B0ED1C1F3D8
:1008F0008343C9031DF803000AD5516804AAC1F354
:100900004041515C0A4A5043B0FBF1F005B07047DA
:1009100008494843FAE700000203040506070809EE
:100920000A0B0C0D0E0F1010010200000010024007
:1009300000127A0000093D002DE9F84F040070D044
:100940002078C04DC00749D06868C0F381000128F5
:1009500007D06868C0F38100022809D16868C00325
:1009600006D52868800339D560680028E7D035E0CF
:100970006068B0F5803F0BD010B1B0F5A02F11D05A
:10098000286820F480302860286820F4802002E065
:10099000286840F480302860606890B1FFF762FEFC
:1009A00006460AE0286840F480202860F0E700BF8F
:1009B000FFF758FE801B642873D828688003F7D59A
:1009C0000CE0FFF74FFE064605E000BFFFF74AFECA
:1009D000801B6428F0D828688003F7D420789A4ECA
:1009E00080074FF001094FF0000839D5686810F012
:1009F0000C0F07D06868C0F38100022809D168682D
:100A0000C00306D42868800714D52069012808D1BE
:100A100010E02069B0B1C6F80090FFF723FE07464A
:100A200005E00AE1FFF71EFEC01B0228C4D82868B3
:100A30008007F7D52868616920F0F80040EAC10016
:100A400028600DE0C6F80080FFF70CFE074604E0C2
:100A5000FFF708FEC01B022823D828688007F7D4B8
:100A6000207800072CD57948A169D9B1C0F8009049
:100A7000FFF7F8FD074604E0FFF7F4FDC01B02286E
:100A80000FD8686A8007F7D571484FF4FA510068AB
:100A9000B0FBF1F0009000BF0098411E0091FAD227
:100AA0000EE080E0C0F80080FFF7DCFD074604E0C0
:100AB000FFF7D8FDC01B022875D8686A8007F7D4F5
:100AC0002078400760D5E8690027C00008D4E869AD
:100AD00040F08050E861E869012700F08050009004
:100AE0005C480168C90513D40168834641F48071EC
:100AF0000160FFF7B7FD824606E000BFFFF7B2FDD9
:100B0000A0EB0A0064284ED8DBF80000C005F5D53C
:100B1000E06801280AD008B1052813D0286A20F01F
:100B200001002862286A20F0040002E0286A40F0F0
:100B300001002862E06841F2883B98B1FFF792FD1E
:100B400082460BE0286A40F004002862EEE700BF0E
:100B5000FFF788FDA0EB0A0159455AD8286A80079B
:100B6000F6D50CE0FFF77EFD824605E0FFF77AFD43
:100B7000A0EB0A0159454CD8286A8007F6D41FB16A
:100B8000E86920F08050E861E06988B36968C1F3E2
:100B90008101022944D00228C6F8608004D0FFF702
:100BA00061FD044638E034E0FFF75CFD074604E0F1
:100BB000FFF758FDC01B02282BD828688001F7D406
:100BC000206AB0F5803F05D16868A16820F4003044
:100BD00008436860D4E908010843696821F4741186
:100BE00008436860C6F86090FFF73CFD044606E0E5
:100BF00025E000BFFFF736FD001B022809D8286852
:100C00008001F7D51BE000BFFFF72CFD001B022879
:100C100002D90320BDE8F88F28688001F4D40EE0E3
:100C20000128F7D06868226A00F48031914204D12B
:100C3000616A00F47010884201D00120EAE70020C8
:100C4000E8E70000001002400000424280044242F7
:100C5000140000200070004070B5040009D0606AE4
:100C6000002540B125616561A56294F8510040B14D
:100C70000CE0012070BD6068B0F5827FF4D0E561C2
:100C8000F2E784F85050204600F040F8022084F843
:100C900051002068016821F040010160A08821898D
:100CA00000F4827001F404410843A18901F4006159
:100CB0000843217C01F002010843217D01F001017C
:100CC0000843218B01F400710843217F01F03801B2
:100CD000084394F8201001F080010843218D01F4AD
:100CE0000051084321680860A069042101EA10400E
:100CF000216848602068C16921F40061C1616565AF
:100D0000012084F85100002070BD000070B586B04D
:100D100000250646009501950295039500681D493A
:100D2000884235D11C49886940F4805088618869BF
:100D300000F480500490886940F008008861886958
:100D4000694600F0080004902820009002200190DD
:100D5000032003901148FFF78FFB1148416841F0D1
:100D6000E06141F0010141600F4C0E48206010200D
:100D7000C4E901058020C4E903056561A561204639
:100D8000E561FFF739FB08B1FFF789FAB4646662E1
:100D900006B070BD0030014000100240000C014060
:100DA0000000014030000240700000202DE9F84FA3
:100DB000044690F8500000271D4616468946012833
:100DC0000DD04FF0010B84F850B0FFF74BFC80467C
:100DD00094F85100BA46012804D0022793E002207B
:100DE000BDE8F88FB9F1000F73D0002E71D0032049
:100DF00084F85100C4F854A0C4F83090A686E68662
:100E0000C4F838A0A4F83CA0A4F83EA0C4F844A0BC
:100E1000C4F840A0A068B0F5004F09D1206801686F
:100E200021F0400101602068016841F480410160C7
:100E300020680168490603D4016841F0400101605F
:100E4000E068B0F5006F606803D030B3012E24D0A5
:100E500041E008B1012E1CD1206B21680088C860D8
:100E600006E020688168890709D5216B0988C1607F
:100E7000206B801C2063E08E401EE08609E0FFF7B7
:100E8000F1FBA0EB0800A84202D3681C01D031E0BE
:100E90007DB3E08E0028E4D120E0206B216800784B
:100EA000087306E020688168890709D5216B0978F5
:100EB0000173206B401C2063E08E401EE0860AE038
:100EC000FFF7D0FBA0EB0800A84203D3681C02D0B8
:100ED00010E017E06DB1E08E0028E3D142462946CC
:100EE000204600F09CF808B120206065A06818B189
:100EF00006E0FFE7032706E02068C16880680090ED
:100F0000606D00B1012784F851B084F850A03846D4
:100F100066E710B5401EB0F1807F01D3012010BDFF
:100F20004FF0E02460610F21601700F08CFC00207E
:100F3000A06107202061002010BDFEE708B54FF03A
:100F4000E0210A690092421C00D0401C0A69D203C9
:100F500000D5401E0028F9D108BD000030B585B08D
:100F600000241B480094019402940394816941F089
:100F700020018161816901F020010491816941F0C2
:100F800004018161816901F004010491816941F0EA
:100F90000801816180690F4D00F008000122049072
:100FA000D1022846FFF758FB0022A9142846FFF774
:100FB00053FB4FF4C05000900120CDE90104032001
:100FC000039069462846FFF757FA05B030BD000088
:100FD00000100240000801400E4810B50C490160A5
:100FE0004FF482714160002102228160C0E9031246
:100FF0001202C0E90512C1610162416281620A21E7
:10100000C162FFF729FE002801D072B6FEE710BDCD
:101010000030014018000020FEE7FEE7704738B5B9
:101020000B46009204460022802100F009F80028B7
:1010300004D0606D40F020006065032038BD0000E2
:101040002DE9F8431E46914688460446089DFFF761
:1010500009FB401B351AFFF705FB074625480068CA
:10106000C0F3CB30684338E0701C37D0FFF7FAFA92
:10107000C01BA84203D215B1009860B32CE02068D1
:10108000416821F0E00141606068B0F5827F0BD1DA
:10109000A068B0F5004F02D0B0F5806F04D1206891
:1010A000016821F040010160A06AB0F5005F09D13C
:1010B0002068016821F4005101602068016841F452
:1010C00000510160012084F85100002084F8500094
:1010D0000320BDE8F8830025401E00902068816849
:1010E00038EA010004D000214945BDD10020F0E7D5
:1010F0000121F9E7140000202DE9FF4F07465000B9
:10110000C0F1000A44480E4683B001681446C2F19B
:1011100001084FF00109002541F00041016030193C
:1011200081B23846069A00F0A9F8301B81B23846E1
:10113000069A00F0A3F8381980B23146069A00F0FA
:101140009DF8381B80B23146069A58E0B8F1000F7E
:1011500009DB0AF102000FFA80FA641E08EB0A00AC
:1011600024B20FFA80F809F102000FFA80F96D1C21
:1011700008EB09002DB20FFA80F87819019006EB00
:10118000040B1FFA8BF180B2069A00F077F8781BF7
:1011900000901FFA8BF180B2069A00F06FF8019868
:1011A000A6EB040B1FFA8BF180B2069A00F066F8EA
:1011B00000981FFA8BF180B2069A00F05FF8381998
:1011C000019006EB050B1FFA8BF180B2069A00F036
:1011D00055F8381B00901FFA8BF180B2069A00F088
:1011E0004DF80198A6EB050B1FFA8BF180B2069A19
:1011F00000F044F800981FFA8BF180B2069A00F0D4
:101200003DF8A542A2DB0448016841F400410160B9
:1012100007B0BDE8F08F00001008014070B51D4612
:10122000049C1646F02821D2F0291FD28219521EA2
:10123000F02A1BDA4B195B1EF02B17DA9BB292B225
:1012400000F07CF90A49700068430A6842F40062C1
:101250000A60084A084907E014F8013BC2F80C305C
:1012600091F85130032BFBD0401EF5D270BD000029
:1012700010080140003001401800002038B5154624
:10128000F02825D2F02923D2124C226842F00042E5
:1012900022600B46024600F051F9280A8DF8000042
:1012A0008DF801502168684641F4006121600A4BC5
:1012B0000A4A012110F8015BC3F80C5092F8515012
:1012C000032DFBD0491EF5D2206840F40040206079
:1012D00038BD000010080140003001401800002017
:1012E0002DE9F8430578441CDFF868804FF0FF399A
:1012F0002BE020788DF80000D8F8001041F0006154
:10130000C8F800104B46012269461348FFF74EFD0E
:101310006078A41C00F0800730F080060CD0D8F86C
:10132000001041F40061C8F800104B4632462146D7
:101330000948FFF73BFD34443FB114F8010BFF2887
:1013400001D14FF4FA70FFF7F9FD6D1EEDB2D0D266
:10135000BDE8F8831008014018000020F8B51D46CC
:10136000069F1646F02848D2F02946D28219521E0E
:10137000F02A02DBC0F1F00296B24A19521EF02A9E
:1013800002DBC1F1F00295B21C4C226842F000422F
:1013900022604A19521E93B28219521E92B200F074
:1013A000CDF8380A8DF800008DF80170206840F4FF
:1013B00000602060124F134A19E0304613E02368A2
:1013C000694643F4006323605FF0010311F801CB29
:1013D000C7F80CC092F851C0BCF1030FFAD05B1EE5
:1013E000F4D2401E80B20028E9D16D1EADB2002DAE
:1013F000E3D1206840F400402060F8BD10080140AF
:101400000030014018000020F8B51B4C054620684C
:1014100040F000402060EF2300211A46084600F00B
:101420008DF8164F164B00214FEA152C05F0FF0ED4
:101430005FF000008DF800C08DF801E025686A4675
:1014400045F400652560012512F8016BC7F80C60B2
:1014500093F85160032EFBD06D1EF5D2401C80B274
:10146000F028E7D3491C89B2F029E1D3206840F481
:1014700000402060F8BD000010080140003001402D
:101480001800002010B5294C206840F00040206072
:1014900027490020C86027480222521ED2B2FCD23F
:1014A00090F85120032AFBD00022CA600122521E6C
:1014B000D2B2FCD290F85120032AFBD00022CA609D
:1014C0000122521ED2B2FCD290F85120032AFBD046
:1014D0000022CA600122521ED2B2FCD290F85120E2
:1014E000032AFBD00022CA600121491EC9B2FCD2E6
:1014F00090F851100329FBD0206840F08050206004
:101500000A20FFF71BFD206840F4805020600A4845
:10151000FFF7E6FE022000F061F80A20FFF70EFD5B
:10152000206840F40040206010BD00001008014019
:101530000030014018000020B4A600083EB5002489
:1015400001948DF805000294224C8DF809102A2090
:101550008DF807208DF80B308DF80000206840F0E2
:10156000006020604FF0FF352B46012269461A4883
:10157000FFF71CFC206840F4006020602B4604222A
:1015800001A91548FFF712FC2B208DF800002068F8
:1015900040F0006020602B46012269460E48FFF7AC
:1015A00005FC206840F4006020602B46042202A95C
:1015B0000948FFF7FBFB2C208DF80000206840F065
:1015C000006020602B46012269460348FFF7EEFBCE
:1015D0003EBD0000100801401800002038B5054647
:1015E0002B4C36208DF80000206840F00060206011
:1015F0004FF0FF33012269462648FFF7D7FB264A02
:101600002449A5B1012D22D0022D30D0032D0DD1BA
:101610002368602043F400632360D0600120401EF3
:10162000C0B2FCD291F851000328FBD038BD23682A
:10163000C02043F400632360D0600120401EC0B28C
:10164000FCD200BF91F851000328FBD038BD2368BD
:10165000A02043F400632360D0600120401EC0B28C
:10166000FCD200BF91F851000328FBD038BD23689D
:10167000002043F400632360D0600120401EC0B20C
:10168000FCD200BF91F851000328FBD038BD000008
:101690001008014018000020003001400FB44A1E1D
:1016A0002DE9F84F1D46C3F30724224493B2DDE928
:1016B0000FBAEDB2421E2A4492B2FFF73FFF002359
:1016C000DFF8A490294E2A4848E00C990E9A203958
:1016D00001FB043132F8117000213CE007FA01F2FD
:1016E00012041CD54FEA1B228DF800208DF801B0A2
:1016F000D9F800806A4648F40068C9F800804FF0C5
:10170000010C00BF12F8018BC6F80C8090F85180D4
:10171000B8F1030FFAD0BCF1010CF3D21AE04FEA92
:101720001A228DF800208DF801A0D9F800806A46B1
:1017300048F40068C9F800804FF0010C12F8018BE2
:10174000C6F80C8090F85180B8F1030FFAD0BCF1C4
:10175000010CF3D2491C8D42C0D85B1C9C42B4D80A
:10176000BDE8F80F5DF814FB10080140003001409F
:10177000180000202DE9FE4F184D0646DDE90DBA90
:10178000286899461446884640F000402860DFB239
:101790001AE0B819F0280BD3C9F3072000EB0801B1
:1017A0001FFA81F800264044F02810D2202A0AD0DF
:1017B000CDE901BA0C9800904B4641463046FFF700
:1017C0006DFFB81986B2641C2278002AE1D128681E
:1017D00040F400402860BDE8FE8F00001008014082
:1017E0007047FEF745BF30B58FB028216846FEF739
:1017F000EBFC14210AA8FEF7E7FC01210804CDE95F
:1018000000100024029402250491CDE907508000C5
:1018100009906846FFF790F808B172B6FEE70F200E
:10182000CDE90A054FF48060CDE90C4000210AA8FB
:101830000E94FEF7B5FF002801D072B6FEE70FB098
:1018400030BD7047FEE70907090E002804DB00F1F0
:10185000E02080F80014704700F00F0000F1E02055
:1018600080F8141D704700000EB5FEF709FFFFF762
:10187000BAFFFFF773FB3048416941F00101416154
:101880004069002200F00100009011460D20FEF793
:1018900055FF0D20FEF744FFFFF79EFBFFF7F2FD1B
:1018A0000020FFF7B1FD254CDFF894904FF4784508
:1018B0004FF6E0774FF6FF764FF47A7840F6B83A75
:1018C0002846FFF7A1FDCDE90175606800900A2167
:1018D0001CA208462368FFF74DFF64231E211A4609
:1018E00008460096FFF73AFD4046FEF7B3FD28464E
:1018F000FFF78AFDCDE90175606800900A2114A206
:1019000008462368FFF736FF3C2133461922084674
:10191000FFF7F2FB4046FEF79DFD3046FFF774FDF2
:10192000802300211A460846CDF80090FFF776FC88
:101930005046FEF78FFDC3E7001002400000002074
:10194000B4260008526563742E2F4C696E652E0014
:10195000436972636C652E00000000000000000007
:101960000000000000000000000000000000000077
:101970000000000000000000000000000000000C5B
:10198000000C000C000C000C000C000C000C000CF7
:10199000000C000C0000000C000C00000000000017
:1019A0000000001B001B001B001B001B00000000B0
:1019B0000000000000000000000000000000000027
:1019C0000000000000008019801980198019C07F74
:1019D000C07F80190033C07FC07F003300330033E5
:1019E00000330000000000000000001E003F807572
:1019F00080650074003C001E0007800580658065DE
:101A00008075003F001E000400040000000000700C
:101A100000D840D8C0D880D900730006000C801BC5
:101A2000C036C066C046C00680030000000000004B
:101A30000000001E003F003300330033001E000C86
:101A4000C03CC066806380618063C03E801C000033
:101A5000000000000000000C000C000C000C000C4A
:101A60000000000000000000000000000000000076
:101A700000000000000000008000000100030006DC
:101A800000060004000C000C000C000C000C000C04
:101A90000004000600060003000180000020001082
:101AA0000018000C000C00040006000600060006EA
:101AB000000600060004000C000C001800100020B6
:101AC0000000000C002D003F001E0033000000004D
:101AD0000000000000000000000000000000000006
:101AE00000000000000000000000000C000C000CD2
:101AF000000CC0FFC0FF000C000C000C000C00002C
:101B000000000000000000000000000000000000D5
:101B100000000000000000000000000000000000C5
:101B20000000000C000C000400040008000000008D
:101B30000000000000000000000000000000001E87
:101B4000001E000000000000000000000000000077
:101B50000000000000000000000000000000000085
:101B600000000000000000000000000C000C00005D
:101B70000000000000000003000300030006000650
:101B800000060006000C000C000C000C00180018E9
:101B900000180000000000000000001E003F00339D
:101BA000806180618061806D806D80618061806115
:101BB0000033003F001E000000000000000000068F
:101BC000000E001E00360026000600060006000675
:101BD00000060006000600060006000000000000E7
:101BE0000000001E003F807380618061800100035F
:101BF0000006000C001800300060807F807F00002D
:101C0000000000000000001C003E006300630003B1
:101C1000000E000E00038001800180618073003F90
:101C2000001E00000000000000000006000E000E74
:101C3000001E001E0016003600360066807F807F82
:101C40000006000600060000000000000000007F03
:101C5000007F006000600060006E007F8063800194
:101C6000800180618073003F001E000000000000C2
:101C70000000001E003F803380610060006E007F26
:101C800080738061806180618033003F001E0000AE
:101C9000000000000000807F807F800100030003BF
:101CA00000060006000C000C000C000800180018CC
:101CB00000180000000000000000001E003F8063CC
:101CC000806180610021001E003F80618061806131
:101CD0008061003F001E0000000000000000001EA8
:101CE000003F00738061806180618073803F801D50
:101CF000800180610073003F001E000000000000B2
:101D000000000000000000000000000C000C0000BB
:101D100000000000000000000000000C000C0000AB
:101D200000000000000000000000000000000000B3
:101D3000000C000C00000000000000000000000C7F
:101D4000000C000400040008000000000000000077
:101D500080008003000E003800600038000E800311
:101D600080000000000000000000000000000000F3
:101D7000000000000000807F807F00000000807F66
:101D8000807F000000000000000000000000000054
:101D9000000000000000000000400070001C000770
:101DA00080010007001C00700040000000000000DF
:101DB000000000000000001F803FC071C060C00034
:101DC000C00180030007000E000C000C0000000C96
:101DD000000C0000000000000000001E003F8031E9
:101DE00080718063806F806D806D806F8067006020
:101DF0000032003E001C0000000000000000000E49
:101E0000000E001B001B001B001B80318031803F37
:101E1000803F8031C060C060C060000000000000F2
:101E20000000007C007E0063006300630063007EAE
:101E3000007E0063806180618063007F007E00001F
:101E4000000000000000001E003F80318061006043
:101E50000060006000600060006080618031003FD1
:101E6000001E0000000000000000007C007F0063F6
:101E700080638061806180618061806180610063D6
:101E80000063007E007C0000000000000000807FF6
:101E9000807F0060006000600060007F007F006065
:101EA000006000600060807F807F00000000000014
:101EB0000000807F807F0060006000600060007F25
:101EC000007F006000600060006000600060000053
:101ED000000000000000001E003F803180610060B3
:101EE0000060006080638063806180618031803F3A
:101EF000001E000000000000000080618061806121
:101F0000806180618061807F807F8061806180618D
:101F10008061806180610000000000000000003FDF
:101F2000003F000C000C000C000C000C000C000C1E
:101F3000000C000C000C003F003F000000000000FF
:101F4000000080018001800180018001800180010A
:101F500080018001806180618073003F001E00006D
:101F6000000000000000C060806100630066006641
:101F7000006C0078007C0066006600638061806110
:101F8000C060000000000000000000600060006011
:101F90000060006000600060006000600060006041
:101FA0000060807F807F0000000000000000C071A2
:101FB000C071C07BC07AC06AC06AC06EC064C060B5
:101FC000C060C060C060C060C06000000000000071
:101FD000000080718071807980798079806D806D5A
:101FE000806D8065806780678067806380630000A4
:101FF000000000000000001E003F0033806180618F
:102000008061806180618061806180610033003F18
:10201000001E0000000000000000007E007F8063C2
:102020008061806180618063007F007E006000606D
:102030000060006000600000000000000000001E62
:10204000003F0033806180618061806180618061D8
:10205000806580670033803F401E00000000000064
:102060000000007E007F8063806180618063007F6C
:10207000007E00660063006380618061C0600000D4
:10208000000000000000000E001F80318031003091
:102090000038001E00078003806180618031003FAE
:1020A000001E0000000000000000C0FFC0FF000C88
:1020B000000C000C000C000C000C000C000C000CC0
:1020C000000C000C000C000000000000000080610B
:1020D00080618061806180618061806180618061F8
:1020E000806180618073003F001E000000000000DE
:1020F0000000C060C060C060803180318031001B52
:10210000001B001B001B000E000E000E0004000050
:10211000000000000000C0C0C0C0C0C0C0C0C0C03F
:10212000C0CC804C804C805E805280528073806135
:1021300080610000000000000000C0C0806080617D
:102140000033003B001E000C000C001E001F003B73
:1021500080718061C0C00000000000000000C0C0AD
:102160008061806100330033001E001E000C000CF3
:10217000000C000C000C000C000C00000000000023
:102180000000803F803F8001000300030006000C38
:10219000000C0018001800300060807F807F000075
:1021A00000000000000F000F000C000C000C000CE1
:1021B000000C000C000C000C000C000C000C000CBF
:1021C000000C000C000F000F000000180018001891
:1021D000000C000C000C000C0006000600060006B7
:1021E000000300030003000000000000001E001EAA
:1021F00000060006000600060006000600060006AF
:10220000000600060006000600060006001E001E6E
:102210000000000C000C001E00120033003380612F
:1022200080610000000000000000000000000000CD
:10223000000000000000000000000000000000009E
:10224000000000000000000000000000000000008E
:1022500000000000E0FF0000000000380018000C43
:10226000000000000000000000000000000000006E
:10227000000000000000000000000000000000005E
:10228000000000000000001F803F80618001801F6F
:10229000803F80618063807FC038000000000000C4
:1022A00000000060006000600060006E007F8073CE
:1022B00080618061806180618073007F006E0000BA
:1022C0000000000000000000000000000000001EF0
:1022D000003F807380610060006080618073003F18
:1022E000001E00000000000000008001800180014D
:1022F0008001801D803F807380618061806180618A
:102300008073803F801D000000000000000000007E
:10231000000000000000001E003F00738061807F0D
:10232000807F00608071003F001E00000000000000
:102330000000C007C00F000C000C807F807F000CE5
:10234000000C000C000C000C000C000C000C000039
:10235000000000000000000000000000801D803F21
:10236000807380618061806180618073803F801DA7
:1023700080018063007F003E00000060006000601C
:102380000060006F807F807180618061806180610A
:102390008061806180610000000000000000000694
:1023A000000600000000003E003E00060006000699
:1023B00000060006000600060006000000000000FF
:1023C0000006000600000000003E003E0006000679
:1023D000000600060006000600060006000600468D
:1023E000007E003C000000600060006000608061D2
:1023F00000630066006C007C00760063006380610F
:10240000C0600000000000000000003E003E00062A
:10241000000600060006000600060006000600068C
:10242000000600060006000000000000000000009A
:1024300000000000000080DDC0FFC0CEC0CCC0CCDA
:10244000C0CCC0CCC0CCC0CCC0CC000000000000D0
:1024500000000000000000000000006F807F80711D
:102460008061806180618061806180618061000045
:102470000000000000000000000000000000001E3E
:10248000003F807380618061806180618073003F64
:10249000001E00000000000000000000000000001E
:1024A000006E007F807380618061806180618073D5
:1024B000007F006E006000600060006000000000AF
:1024C00000000000801D803F80738061806180611A
:1024D00080618073803F801D8001800180018001C8
:1024E000000000000000000000000067803F00398D
:1024F000003000300030003000300030003000008C
:102500000000000000000000000000000000001EAD
:10251000803F80610060007F803F80018061007F9C
:10252000001E00000000000000000000000800186D
:102530000018007F007F001800180018001800180D
:102540000018801F800F0000000000000000000045
:102550000000000000008061806180618061806116
:10256000806180618063807F803D0000000000000A
:1025700000000000000000000000C06080318031D9
:102580008031001B001B001B000E000E0006000027
:10259000000000000000000000000000000080DDDE
:1025A00080DD80DD00550055005500770077002262
:1025B00000220000000000000000000000000000F9
:1025C0000000806100330033001E000C000C001E70
:1025D00000330033806100000000000000000000B4
:1025E0000000000080618061803100330033001BF7
:1025F000001B001B000E000E000E001C007C007073
:1026000000000000000000000000C07FC07F8001CB
:1026100000030006000C00180030C07FC07F0000DF
:102620000000000080038007000600060006000688
:102630000006000E001C001C000E0006000600062E
:10264000000600068007800300060006000600065C
:10265000000600060006000600060006000600064A
:102660000006000600060006000600060038003CD2
:10267000000C000C000C000C000C000E0007000702
:10268000000E000C000C000C000C000C003C00388C
:102690000000000000000000000000000000803882
:1026A000807F0047000000000000000000000000E4
:1026B00000000000000000000021000000210000D8
:1026C0000000082000400020000108410000000038
:1026D0000040000008000800080200000800080090
:1026E0000000080000000800080008001042000078
:1026F0000000002000000841000000000821000048
:102700000000084000000820000000000800000051
:102710000000082008000000000000000000000089
:10272000000000000802000000000002000200019A
:102730000000080008000000000000000800000081
:10274000082100010800082100000000000000002E
:102750000800080008410000000000200000000000
:1027600000010001082000000060000010000800C7
:102770000000002008000020000000000800080001
:102780000000002000400000002100000060006008
:1027900000001000002000000820000000001000D1
:1027A00008000000080000000020000008000800E9
:1027B000104200000861FFDFF7BEFFFFF7BDCE77D4
:1027C000F79BFFBBFFFBE6F9D637C5B5C5B4F77974
:1027D000F799FFBAFFDAEF38BDB4C5F4EF58F798B0
:1027E000F758FF9AE718C5F4C5D3DE96D655FFBA59
:1027F000F7B9F7D9F7B9F799F79AF799F799FFDA8F
:10280000FFDAF7B9FFBAF799FFBAFFBAFFB9FFBA13
:10281000F799FFDAFFBAFFBAFFBAFFBAFFB9FFB9FB
:10282000FFB9FFBAF77AFFFACE749CB1AD54C5D4A4
:10283000DEB6FF9AFFBAF799FFB9FFB9F7B9FFDA29
:10284000EF58BDF3F77AFFDBFFFBFFDAFFDAEF5853
:10285000EF58FFFBF799FFDAFFDAF7B9FFFADEF777
:10286000BDF4EF59FFBCF7BBF7FCF7BBF75AFF7B92
:10287000FFFCF7BBF77BE73ABE15CE36FF7CF73A95
:10288000FFBCFFFCCE58C5D5F75AFFDDF79CB575E8
:102890009410A450B431C411CC93BC92BC72CC72CD
:1028A000CC72BC92C472BC92BCF4ACB2B4D3C57648
:1028B0009CB308620000FFFFFFFFF79DC636E6F7F6
:1028C000FFB9FF97FF57DE34DE36B4F0CDB1FF76A7
:1028D000FF76FFD7F757D6539C8DCE32FFB6F7540D
:1028E000F775FFB7D633ACCEC5B1CDF2E6B4FFF87D
:1028F000FFD7FFF7FFF7FFD7FFD7FFB7FFB6FFF709
:10290000FFD7FFB6FFB7EF55FFD7FFD7FFB6FFD70B
:10291000FFB6FFD7FFB7FFD7FFD7FFB7FFB7FFB6A9
:10292000FFB7FFD7FF97FFF7E7348C4D83CD9CAE01
:10293000D653EED5FFD7FFD7FF96FFD6FFB6FFF7EA
:10294000FFB6D692BDB0EF36FFF9F776FFB6F75572
:10295000E6F4EF36FFF8F775FFF7FFD7FFD7F77606
:10296000BDD0BDD1FF38FFDAFFFBFFFAE736EF3607
:10297000FFD8FFD8FFB9FFFBBDD2BD92DE35FF798E
:10298000FFB9F7F9F73CBD72DE54FF58FFDDE69A58
:102990008BAE832BBB2ECAEECB2EBB2EBB4EC30EF3
:1029A000D32EC32ECB0EBB2EB3AFABEFA410B4F41B
:1029B000AD1400001061F79EFFFFF79DA531FFFAEF
:1029C000FFB7FFD6FF35CD70BCD09C0CDE34FF3690
:1029D000FF96FF56F6D7B4EF9C2CF716FF76E6B2BB
:1029E000F735E6B4A44EACAFD5F3D613FF77FF7737
:1029F000F755FFB7F776FFD7FFB7FF96FFB6FF96FD
:102A0000FF77FFB8E6D4EF15FF96FF96FF76FF96A7
:102A1000FF76FF96FF76FF76FF96FF76FF76FF76CE
:102A2000FF76FF76FFB7F795F7967BAC5208832BBE
:102A3000B4CFD5D3FF56FF97FF55FF95FF75FF968F
:102A4000FF96FFB7AD0EBD90F716FF76FFB6FF9667
:102A5000EF15CDF2FF56FF76F735FFB7FF76FF97FC
:102A6000F757A4ADCD71F717FFD9FFF9E736DEB3FD
:102A7000E6D4FFD8F7B8FFF9F778ACAEC530E61367
:102A8000FF98EF56FFDCD654A48CC570FF19FFBD2C
:102A9000C5946288B2CCC28CBA2AAA4AB2CBB24AD6
:102AA000C26BB24ACA4BBA6B9A6A9B2D9B8E9C3002
:102AB000A4F300610000FFFFFFDFFFFEAD51F757F9
:102AC000F734FFB4D5AFD5B193EC83ABA48EBD7012
:102AD000E6B5EEB6E6568B8BA46EFF57EEB3F6F373
:102AE000FF97BD308B6BBD11C571F6F6FF76FF9772
:102AF000FF56FF56EED4FF96FF75FF75FF96FF76E3
:102B0000FF98FF57DE51FF56FF96FF76FF96FF9620
:102B1000FF96FF76FF97FF76FF96FF76FF96FF768C
:102B2000FF76F714FF35FFB5FFF8944E938EB4701F
:102B3000936BCD73DE32FF36FF96FF96FF55FF5540
:102B4000FF75FF76EED5A46CC571FF37FF76FF7574
:102B5000FF56BD50CD6FFF57FF56FF56FF76FF77EC
:102B6000FFB8D633A40CCD72F717FFFAFFF9E715BB
:102B7000D632FF37FFD9EF78FFFBCDD3A42DC53078
:102B8000EEB5FFB9F797FFFAB530A4CED632F716F7
:102B9000FFBA7BAC89C6B1E9B9A8A9C7AA29A98798
:102BA000B9E8A9A7A967AA0989E7828982EB93CF27
:102BB000A4D200000000FFFFF7BEFFDEAD32E6D575
:102BC000FFD6FF52C52EC52F7308DE96AD307BA908
:102BD0007B69A48FAC8E72E7D5D1FF55DE4FF733FA
:102BE000EEB38B89AC2CBD0ED5F0FF74FF74FF746F
:102BF000FFB6EE92EED2FF74FF74FF73FF53FF95A2
:102C0000FF76D611DE2FFF94FF94FF74FF94FF74BC
:102C1000FF74FF73FF74FF33FF95FF54FF74FF745D
:102C2000FF54E691FEF3F773FFF5B54FAC4FE59314
:102C30009B6AB48EC52DEE92FFB6FF54EED1F7120B
:102C4000FFB5FF53FFD6B50DA42BD590F6B2FF7498
:102C5000FF75BD8FAC4BCD6FFF35FF75FF54FF95F2
:102C6000F733FFD6A46E9C0CD5D3FF79FFFBF77822
:102C7000D633D5B1FFFAFFBAF799FFBB93ECBCAFDF
:102C8000BD0FFF37FFF7FFFAE739946DA4ACD631DB
:102C9000FFB9D67671449105B947B126A946A0C5BA
:102CA000B926B126A96699C779A672287269834D9B
:102CB000A49200000020EF9EFFFFFFFFBD94C5D24D
:102CC000FFF7E690BCADBCCE8388FFB8F796F775EA
:102CD000C5B08BCA6A856AA5F6D4EED2EED0FF5392
:102CE000C54E8B69C4EDC52DF6F3FF73FFB4FF53DA
:102CF000FF34D5EFFF54FF74FFB4FF93FF73FF95CC
:102D0000E692ACCCEEF1FF94FF73FF73FF94FF7378
:102D1000FF73FF93F6F2EED1FF74FF74FF53FF745D
:102D2000FF74DE2FF693F752F7B3DE729349E53165
:102D3000BC2C8B29BD0DD5CFFF75FF54EED1DE2FF6
:102D4000FF53FF74FFB3EEF4A44CAC4CDDF0FF7303
:102D5000FFB5E6D3B46CAC6BD5D0FF54FF94FF73D2
:102D6000FF94FFB4D65393EAB4ADDE53FF98FFB996
:102D7000EEF6BD0FEED6FFFAFFFAFFDACDF393AA17
:102D8000B48DCD50FFB8F799FFFCB5928BEABD2EFC
:102D9000DE52FFF99B8C78C3B106A8C5A0C4A8A4D5
:102DA000A8C4A8E5A906890460C361A67249834D39
:102DB0009C5108000000FFFFFFDFFFDFD678942D55
:102DC000FF56D630CCEE9BC99C09FF95FFF4F772F5
:102DD000FFB5F6F483298BAAFF37D5F0F713F6F485
:102DE00093AA8B8CBCCDD58FFF55FF95F773FFB69B
:102DF000D610E632FF75FF54FF94FF53FF95FF7521
:102E0000C5909C4BFF96FF95FF75FF75FF95FF746E
:102E1000FF74FFB5E671E691FF75FF75FF55FF750D
:102E2000FF95DE30CD0FFF95FFD4FF569308DCF001
:102E3000CCD082C9B4ADB4ADEE93FF96FF96C58EEB
:102E4000DE31FF55F773FF97AC6FA3EDBCCDE650B5
:102E5000FF95FFB7BCAFB46DAC6CDE11FF55FF74CE
:102E6000FF94F774FFD79C4A93C9BD0DEEF5FFD8C8
:102E7000FFD9C590B4EEFFFAF7F9FFFAFFD993A98D
:102E8000B4ADAC6BD5B2FFDAF798FFFB9C0D9BABF2
:102E9000C52EFF33E6B7712498C4A0C498E5A105F8
:102EA00098A498E4A885A10670E461456A08832D7A
:102EB000941008000001FFFFFFBEFFFFE73C7BAC62
:102EC000FEF6DD4DBCEE8B498B6ADE12FF96FF33BA
:102ED000FF74CDCE6A68C56DF6F2D5EFFF75D5B13A
:102EE00072A8B4ACB4ACF6F3FF73FFB4FF75FF5631
:102EF000A46BFF15FF76FF92FF73FF74FF73F71546
:102F00007B08DE52FFB3F733FF75FF55FF74FF7385
:102F1000FF74FF95D590F6F3FF74FF95FF53FF7391
:102F2000FF75DE31BCADFF14FF94FFF69C4AC44D23
:102F3000E4B0BBEC7B29BC8ED58FFFB5FFD5EE513D
:102F4000BCCCF6F4FF53FFD5E7339429B4ADC4CE1F
:102F5000F6B4FF75E7359C2CB450C46FE5D0FF5232
:102F6000FFD4F713FF91F71372A7C4F0C4EEFF1557
:102F7000FF97EEF7AC4CDE13FFDAF7DAFFFACE1369
:102F80008B68C4EFB4ACF6B4FFD9F7DBCEB86B2ACC
:102F9000BCCFE52EFF977C0A7884B0A6A8C5A08296
:102FA00090C3A8E4A0A598C468C351C55A07930C60
:102FB000A41100000021EF7DFFFFFFFFF7DE8C4E24
:102FC000CD91D52DC53072A66225B4CEEE93FF54B7
:102FD000FF75BD0D6A68DE10E670E671FF34AC8DDA
:102FE000832AB4CCC54EFF54FF73FFB4FF96C58F40
:102FF000BD0DFF35FF56FF72FF73FF75FFB4C56F40
:103000008B8AF715FFB3FF74FF75FF75FF94FF748C
:10301000FF95F714C52EFF14FF74FF74FF74FF7340
:10302000FF74DE31B48CF693FF74FFD5ACCCB3ECF7
:10303000E4F1D4CF8B2AAC2DC50EEEF3FF74F6F37A
:10304000C52DCDAFFF75F753FFB5ACCC9BEBBCAE38
:10305000CD6FFF34FFD5BD4EA44DC4CEC4CCFEF21F
:10306000FF33FF96FFB4FF77AC8F9BCCBCEED6103E
:10307000FF75FF56CD30AC8DF757FFFAFFFAFF9979
:103080008B89B48DBCADCD6FFF98FFFAF7DB944E02
:103090008B6AD4CEEEB4D6B568E3A085A8C5A8E403
:1030A000A0E498A3A0A598C468C359A56207930C8F
:1030B000AC1100000000F7BEFFFFFFFFFFFFB5747B
:1030C000836ACD2FAC8D93CA93EB6243B4EDEEB31C
:1030D000FF36AC4C7AE9F6D4D5CEFF14EEB38B684C
:1030E000A3ECBCCCE651FF95FF53FF95F7148BC8BA
:1030F000DE31FF75FF55FF52FF73FF75FF758BA81B
:10310000ACADFF97FF93FF94FF54FF75FF74FF74FE
:10311000FF95D611B48CFF34FF74FF54FF94FF74F5
:10312000FF75DE31B46CDDF0FF75FFD5C5AFA36967
:10313000DCF0D510B3ED8B49B4CDD5CFFF34FF749F
:10314000CDAEB4ABEE91FF74FFB5E6B38B48C4CE01
:10315000B48CE631FFB3F7748C09B4CDBCACCD2D83
:10316000FF14FFD8FFD8FFDAEEB8836AB4EEBD0CC7
:10317000E691FFB6E5F1AC4BC590FFFAFFFAFFFA16
:10318000BD508BAAC4EEB46CE653FFFAFFFBDEB66B
:1031900072C8BC8FC54EFFB88AE888A3A8A4A8C48B
:1031A000A88390E4A0C598C468C3598562079B2D85
:1031B000B43100000000FFFFF7DFFFFFFFFFBD9409
:1031C0006266C5309C0C8BCAFF77A48B5A02B4CDC3
:1031D000CD71AC4E93CBF6D4CD8DFF75D5B07AE7DB
:1031E000B48DBD0DF713FF94F733FFB6CDAF8BA8A9
:1031F000F714FF95FF54FF73FF73FF75E6727305B5
:10320000D611FF96FF73FF74FF34FF95FF53FF74D1
:10321000FF75ACCCAC8BFF55FF74FF54FF94FF746B
:10322000FF75D5D0AC6CCD4EFF54FFB5DE929B49F7
:10323000DCF0C4AEDCF182C8B4ADC4CDFF13FFB482
:10324000CE0FB48BBCECFF75FF34FFB79C2B9BEB10
:10325000C4EEC4EDFF12FFB6BE1183C9C4EEC48D27
:10326000D5D1FFF9FFFAFFFBFFDB9C6EA46CB4EC39
:10327000BD4CFF54F693C50DA44BEF16FFB9FFB933
:10328000F75883A9BCCEB46DC50EF736FFD9FFFB46
:10329000942E834BBCCCEE53CDD170E2A8C4A8A42D
:1032A000A0239145A0C598C470C359846A07A32D73
:1032B000BC5200000020FFFFFFFFFFDFF77CA4905F
:1032C0007B29A44D8B8A9C2BFF97FF55B4ED5A03A5
:1032D000A42D8B6BB4AEE652DE0FFF75AC6D830888
:1032E000BCEDD5AFFF94FF53FF54FF7693C9B4CD27
:1032F000FF75FF74FF74FF74FF74FF95ACCD836797
:10330000F734FF54FF73FF54FF54FF95F6F2FF7438
:10331000FF358BA9BCEDFF75FF74FF74FF74FF537D
:10332000FF54C54E9BEBBCCDFEF3F774F7359BCA3B
:10333000DD51C4CFE4F1A3AB9BCBC4ADEE31FFB5FF
:10334000DE91AC4BB48BE631FF55FF56D6126A8541
:10335000C50FBC8CDDB1FF78F7DA7BCBB48EC4AE81
:10336000BCEEE6F5FFFAFFD8FFD9D6337B48BD0F98
:10337000B4ACE631FF55CD6EAC8BC590F736FFD9B6
:10338000FFFAAD4F93CABCCEC4EECD90FFF8FFFA62
:10339000D67649C5B48CCD2FF77779E498C3A8C504
:1033A000A8648904A0C598C578C361647207AB4E50
:1033B000BC7200000020F7DFFFFFFFFFC5B4ACAF19
:1033C000A44D7B087B29CDB1FF55FF95FF55CD90CE
:1033D0006A866246C56FCDB0F6D2F6D38B6A93ABE0
:1033E000BD0DEE72FF94FF53FF75E65272C6DE12FA
:1033F000FF75FF73FF73FF74FF74FF558369A44B60
:10340000FF95FF54FF94FF54FF75FF74EED1FF75D5
:10341000EE937B07C52EFF55FF74FF74FF74FF7397
:10342000FF75C56E838ABCCDF672FF74F775A42B49
:10343000DD72DDB3CC6DD4F082C8C4AEC52EFF55AD
:10344000EF1593EBBCCEBCCDFF35FF97F7787348F3
:103450009BCBC4AEBCAFF718FFFCB5518B8ABCAF99
:10346000BCCEC54FFF96FF95FF75FF766AC6AC6E62
:10347000BCCFC50EFF55DDF0B4ACB4ACEE94FF97F5
:10348000FFF9E7367B08B48EC4CEBCEDF735FFF804
:10349000FFDA5A887265C4AEEF15A3EB7882A8A54F
:1034A000B0E690C3A0C4A0E578E461647A08B34EA6
:1034B000C47208000000FFFFFFFFEF3BA48FD5D2CE
:1034C000BCEE7B2751C4DE32FFB5EF11FFB5FFB76D
:1034D000B4CF6245D5D0C54FFF13E63082C9AC2DBD
:1034E000C52DFF14FF93FF73FF55AC8C8307F6B512
:1034F000FF75FF92FF72FF55FF95E69272C7C59068
:10350000FF73FF94FF74FF54FF75F6F2E690FF75AA
:10351000CDB072A6C54EFF55FF53FF74FF74FF7404
:10352000FF95CDCF6AE8BCCEE5EFFF74FF95A42BE5
:10353000CD10FE96D4CDE5119B4BA3ECB4EDEEB3CC
:10354000FF789C8FB46DB48CDE11FFF9FFDAB59271
:1035500072C8B42DBCCDCD91FFBAE6B66AC7BD0F17
:10356000B46CC4ADE651FF33F752FFB69C2B72C862
:10357000C4F0BC8CE651F6F4BCACBCADCD90EED43E
:10358000FFF8FFF7944C8B6ABC8EC4CED5D0FFD722
:10359000FFFAAD5140C1A38BD5D2CDF270E3A06448
:1035A000A0E5A0C3A0C4A105810469658208BB4E43
:1035B000CC9308000800FFDFFFFFBD95BD31E63367
:1035C000BCEE9C2B5A05FF77FF53FF71FF73F6F497
:1035D0009C4B72E7D5F0C54FFF13D58E7AC9BCAFAF
:1035E000CD6DFF55FF92FF73FF147B069BEBF6D664
:1035F000FF95FF92FF72FF55FF95CDCE6AA7DE5370
:10360000F732FF94FF54FF54FF75E670DE70FF54ED
:10361000BD0E6A86CD90FF96FF74FF74FF74F7535A
:10362000FF54D5D05225BC8DD54DFF74FFD6A44B89
:10363000BC8EFF39EDD0CC6ECC707AE8AD0EDE12C8
:10364000FFBAB5B493ABB4AEBD0EF777FFFADEF8B0
:103650007B09932AB4CBBD0DE673FFB87347940A78
:10366000CD0FCC8CC50DFF13F731FF95D61341223A
:10367000B48EBC8CBD4DFF56CD4FBCACAC4BF6D41C
:10368000F775FFF7CE5451E4C4D0BC6DBD0DF734CF
:10369000FFD8EF5849437A67C4CEDEB581C5A8A5E7
:1036A00090A4A8A4A0C4A105892571858228BB4E39
:1036B000CC9308000021F7BFFFFEA4AFEED5DE31AA
:1036C000B4CDAC6C832AFF14FF33FF33FF53EEB34A
:1036D0008BAB8389DD8FCD6DFF35A44D8B49BCEC61
:1036E000DE30FF75FF54FFB5D58F7286C4EEFF52F2
:1036F000FF71FF94FF74FF53FF55A3EC8309EE7332
:10370000FF94FF74FF93FF73FF91CDCFF6F4F73171
:1037100093AB59E6DDEEFF74FF54FF34FF55FF75A0
:10372000FF75D58E51C59BECBD0FFF57FFDAA4CFB7
:10373000A46EFF18F716CC8EECF1932A93ACC5114A
:10374000FF98E733834ACD0EBC6BE612F775FFF5A1
:103750009429ABEE8B48BCCFCD70FF95B56D51E48D
:10376000C4F1C4ACC4ACE630FF35FF75FF5352035F
:103770006A89C551AC8CEE73DDAFBC8BBCADBCEEC1
:10378000FF77FFB6FFB76AC6836BC4D0BC6CDDD0D1
:10379000FFB7F7FA7B275841ABCEEE548347902111
:1037A000B085A8E5B0C5B0C5994569649249D34FC5
:1037B000C3F100400000FFFFDE98B551FF56CDAFCA
:1037C000BCEDAC4C7AE9FF35EE91FF33FF73E65266
:1037D0008B8A93CAD54ECD8EFF159BEB93AABCCC9A
:1037E000E670FF75FF54FF54B4CC7AC7CD70FF5319
:1037F000FF72FF75FF93FF73F71393A993CAF6F255
:10380000FF73F773FF53FF54F751BD2EFF56EED1F0
:1038100072E76227D5CFFF96FF96FF76FF76FF9778
:10382000FF97C56E622693CBBD0EF6F5FFDAAD307D
:103830009C4DFF18FF57EDB2D48FB40D7AC9C4F078
:10384000EE94F7958BABBCCDC48CC4EDF734F794F4
:10385000C58EA3CD9BCBA3ECC4EEEED3EF1449C32E
:10386000AC6EC4ADBC6BCD2DFF36F754FFB48BAA44
:103870006228AC6EB4CDD58FE5F0B46BBCCDB4CEC0
:10388000E693FFD7FFD7A4AD51E4BCD0BCADC50DC6
:10389000F756FFF9A4AD58827A28CDB1B44C88C34D
:1038A0008864808368828883A18789E789C7C30E7B
:1038B000D4D400000001FFFFB573CE13FFB6CD8E48
:1038C000BCEDAC4D6226F6F5DE30EEB2FF94DE11B3
:1038D0007B099C2BCCEDD5CFEED38349A40CBCEC5B
:1038E000EED2FF95FF75F6F393C98B69E633FF952A
:1038F000FF95F796FF95FF94DE517B07AC8CFF5444
:10390000FF94FF75FF96FF76EEF2ACCDFFB8DE3088
:103910006A8672CACDD1FFD8FFD9FFD9FFB8FFF9A7
:10392000FFD9BD707AC8938ABCCDE673FFD9BDB10B
:10393000940BFF18FF77FEB5D4AECCD07AA8AC2D8F
:10394000CD90FFD6944CAC4BC4ADBC4CE672FF940A
:10395000EEF493ABBCAF8AE8BC8DCDAFFFB7734834
:103960007AE8C4EEBCACB48BF694FF34FFD5BD2F1F
:1039700072898B49C50FB4ACE611AC2ABCCDB4AD8D
:10398000CD8FFF97FFF7D69441829BECC4EEB46BCA
:10399000E673FFD9C5F160C360E4A4EFC4CF58A1BA
:1039A000716692EBA490A30C81467986A2ABBB0E04
:1039B000C45200000021FFDFB573EF36FF75C56DFF
:1039C000BCCDB46E4163CDB0DE31D5CFFF34D5D19F
:1039D00072A7AC8CBCACDE10E65272C7B48EBCECE5
:1039E000FF13FF95FF75E6727B079C0CF6D6FFB7B9
:1039F000FFB7FFD8FFB9FFB9CDB272A8C551FFB864
:103A0000FFD8FFBAFFD8FFB9C5D1ACADFFB9B50E2D
:103A10007B29834BCDB1FFD8FFD8FFD8F757FFB82C
:103A2000FF98B4EE83298B69B4ACD5F0FFD7CE11E3
:103A30008BA9FF18FF57FEF6E591CCCFA3CC934995
:103A4000C52FFF75AD4F93EACCCFC48DC52DFF9523
:103A5000FF76940BC4D09B4AA3AABCEDF6F5B54FF4
:103A60005A24AC6DC50EB48CCD6FFF35FFB4C59034
:103A70008B6C82C7BCAEB4ADDDD0A40AB46CBCCE36
:103A8000B4CDFF15FFF7EF576B086AA7C4CFB44B4F
:103A9000CD6FFF57DF15716568837B49CC8F51C5AA
:103AA000C575F77BF7FDFF5CC4D27A499A8BC34F8B
:103AB000BC1100000000EF7DB572FFB8FF75BD2C92
:103AC000BD0EA40D39038BC9DE31C52EEE92D59003
:103AD0007287B4ADBC8CE651D5D072A6BCCFC50CF4
:103AE000FF53FF74FF55CDB072A6B4ADFF36FF97FC
:103AF000FFD7FFF8FF99FF98BD3172A9CDB2FF97AC
:103B0000FFD8FFBAFFB7FFB9942CACEEFF9893CA69
:103B100093CB830ACD4FFF76FF75FF75EEB3F75554
:103B2000F715AC6C8B4A936AAC4CCD8FFF96D6518F
:103B30008368FEF7FF37FF16F694CCCFCCAF8AE848
:103B4000B4CDEED3D6B37B27CD10C4AEB46AF6F4B1
:103B5000FF96B52DBC6FCCF08AC7B46DDE33D6129C
:103B60007B07832ABCEFC4EDBC8DF6B3FFB5C5B1AE
:103B70009BADA38A938ABCEECD4FAC6B9BEBBCCEC6
:103B8000B48CE632FFD6FFB79CCE5A46A3ECC4AE47
:103B9000BCCDF6B4F7F88248788459A4BC4E736B58
:103BA000F7DEE79CEF3BEF7CEFDC9C2F8A2ACB2FE4
:103BB000C43200000000EF5CA4F1F737FFB7BD2D61
:103BC000CD508B0949A572E6C54FBCEED5AFC50FE8
:103BD00072A7B4CDBC8CEE52BD4E72C7BCCFCD4DDA
:103BE000FF73FF74F6D3B4AD72A7BD0EFF35FF7639
:103BF000FF96FFB6EEF3F734AC8C72E7D5D1FF93A6
:103C0000FF93F756F755F7566AC8C570FF568309F4
:103C1000AC4D7AC8CD2DFF34FF54FF53E670FF54EE
:103C2000FF14B44A8B4AA3CCA3CACD4EFF74DE71F5
:103C30008B68FEB7FF38FF57F6F5DD51D4B09B6AAD
:103C4000A42BDDF1EF556AA6C4D0C48DBCACDDD089
:103C5000FF96D650B48FE5B3A38A9B6AC530E6734E
:103C600093CA82EAA44CBCCEBC6DDDF0FFD5D6323F
:103C7000936BCCAE7A87B48EBCEEB4CD9389BCCEB8
:103C8000BC8DD54EFF75FFF8B570730872A7BCAF39
:103C9000BC8DDDF1FFF79B4A80C560A2934B736B2F
:103CA000EF5CD719EEDBDF1AEFFDA4B1A26BD30FE7
:103CB000BBF100200000F7BDB573C5B2FF57C54E7C
:103CC000CD307AC85A48940B93C9B48DC50EB48EC2
:103CD0007AA7BCEEBC8CEE52B4CC8308BCCFD58E98
:103CE000FF74FF74E65193CB7AE8C54EFF33FF555E
:103CF000FF55F732DE6FF6F29C0B8309DE11FF925F
:103D0000FF92FF74FF74DE5151E5E652F6B382EA8A
:103D1000BCCF7AA7C4ECFF14FF74FF53DE2FFF74EF
:103D2000F6F3AC09934BB42E9329C52EFF34E692DB
:103D30008B89FE98FF18FF78FF57F5F3D48FAC0DF1
:103D40008B89CD4FF77572E7938CBCCEC4EDC4ED73
:103D5000FF55EEF2B48FEE14CCF08B09A40BE67392
:103D60009BEAA3AE8369BCADBC8EC52EFFB4DE73E7
:103D7000936BE53082E9A3EBB4CEBCEE8B49BCAECD
:103D8000BC8DC4ACF6F3FFD7CE3383AA51C4A40CC8
:103D9000BCADCD2EF7D5AC4D80A48862624662A939
:103DA000CD96FFFDF73CFFFEE73A9B4DB24BD32F7C
:103DB000BC3100200000FFFFDEB9A46EE674C54FE1
:103DC000BCCE8B4A6AAACDB16AA5A42CBCEDB46D59
:103DD0007287BD0EBC8DE652A46B8B49BCAED5AECE
:103DE000FF93FF94D61083498B49CD8EFF32FF7429
:103DF000FF34EECFDE4FF6D49BAB82EBE5F3FF74DE
:103E0000FF52FF76FFB4BD4C4963F6B3DDCF8AEABB
:103E1000CCEF7A87BCCCF714FF95F733D60EFF743E
:103E2000EEB39BC9936BC4908AC8C50EFF33EEB244
:103E300093AAFE78FEF8EF57FFB8FE55E4D1BC4ECA
:103E40008348BCCDFF958BAA6226C4EFBCACBCAD49
:103E5000F6F4FF939C0DFEF7DD729B8C8B49DE110F
:103E6000AC2CBC3172E7BCAEBC6EBCEDF753D67364
:103E7000A3CDE510A3CD936ABCEEB4CE8348BCAE0F
:103E8000C4AEC46BF692FF35EF367B8A49838B4A0A
:103E9000BCCEBCCCEF94BD0F7883A8A55205498554
:103EA00061A7B513C637AD33830B8987C24CCB2FBF
:103EB000BCB300000000FFFEFFDFBD969C4FCDB0FD
:103EC000C4ED932993CC93E9EE956A86AC8DAC6DE5
:103ED0007AE8BD0DB4ABEE5393AA9BAABCCDDDEF3F
:103EE000FF54FF54CD5082E7A3CAD5B0FF74FF74CE
:103EF000FF95D58FF6B1E633938A8B8ADE31FF7456
:103F0000FF53FF74FF947B8C49E3FF35B4AF9B6A8A
:103F1000D50F6247B48DFE92FF93FF14D5CFFFB447
:103F2000F6519BAA9B6CD4D08AE8BC8DF6D2E713DD
:103F30009B6AFEB7FF58FF17FF37F717E5B2DC6F34
:103F40009B29A48EEED4BD2F7286B46EBCCFAC8CF0
:103F5000D630FFB59CCDDE55F676CCEF82C6BCCD13
:103F6000AC2DB3EEABCB8AE8CCEFBCABF692EE3423
:103F7000AC2DDDD2D4AF6A24B48ECCEF8B489C4BF1
:103F8000C50DC40AE591FF35FF959C2A72E8396397
:103F9000BD30BC6CEEB2CDB14861B06779054183EC
:103FA00090C4704280E38842A0C5B1A8BA2BD30F59
:103FB000BBF100200000FFFFFFFFF77E942FA48CD1
:103FC000C52F8309BCF08367CD90D5B37B078349A8
:103FD0008329BD0DB4ACE613938A9BCABCCDDE1019
:103FE000FF75F713C4EF7AC6A3EBDDF1FFB5FF94BD
:103FF000FF34C50DF6B2DE128B6A8B8ADE31FF9478
:10400000FF73FF74FF3362C85A45FF35AC4DAC0DEA
:10401000DD2F7288AC4CF672FF93F6F4CD8FFF94CF
:10402000EE30938AA3ADDCD08AE8BC6DF6B1E6F33E
:10403000936AFEB7FF38FF17FF58FF57EE14DCB046
:10404000A36A93EBDE32DE128328938AC4EFB48C2A
:10405000C54DFFB5A4EDD5F3FF39DDB38B6993CA28
:10406000BCAFA3ADC511830ABCD0B4EDDE32DE1403
:10407000BD12F718DD5293AB93CCC4F183495A8437
:10408000BD4FC46DC4ADFF96FFB5B4ED832A49C5DD
:10409000940CBC8CD5EFD6534963806550C3312254
:1040A0008802B10790C4A0C4B187A9E8B28BD3B08D
:1040B000C49300000000FFFFFFFFFFFFCE168BEA56
:1040C000CDB17AC9C551BD2D7B06FED7BD0E7AE8AC
:1040D0008309BCEDB4ACDDD1938A9BCABCCDDE10A4
:1040E000FF75EEB2B4AE7A86AC4CDDF1FFB5FFB42D
:1040F000EEB2BCACF6D2D5B18329938ADE31FF94FF
:10410000FF73FF54F6B241C56AC7FF3593EBCCF19C
:10411000DD2F7AC89BEBEE31FF74F6B3C56EFF94CA
:10412000E5F08B49AC0EDCF08AE8B44DEE91E6D3B5
:10413000934AFED7FF38FF38FF58FF58FEB6E51107
:10414000B3CC8349CDB0DE129BAA9349BC6DB4AD0C
:10415000C52DFF54CE11B4EFFF3AEE98B510730899
:104160009C0D62279BCD518572A97B2873076288BD
:1041700041A5734A620651C54984AC7093ED318202
:10418000A4AFBC8EBC6CFF55FF75BD0E93CC83AC49
:10419000838ABCAED5AFCE3294D0BC1120801860DB
:1041A000A8A6B845A8C5A8C4A946A1C7AAABAB2D67
:1041B000BCB300000000FFFFFFDFFFDFFFFE83CA8C
:1041C0009C6D93CDA44DFF557AE5A42CF6D59BCBE1
:1041D0007AE9C50FB4CCCD7093699BCBB4CDDE101A
:1041E000FF75DE30B4AE7266B48DD5F0FF94FF94E7
:1041F000DE30BCACFEF2D590832993AADE31FF9469
:10420000FF74FF54E63139438349FF148BABDDD48F
:10421000DD2F8B0993ABE5F0FF94F693C54DFF942A
:10422000DDAF834ABC8FDD108B09AC0CEE71DEB2C2
:10423000934AFED7FF58FF38FF37FF57FEF7ED725E
:10424000C44E7AE8C54EDDF2AC0BAC0CA3CBBC8DF2
:10425000BCACEE92E6B3ACAEFF9CEEB9A48F396273
:104260005A47392359A438C341237B0883698BAD4E
:104270007B8CBDB3C552938B49836A4762871860B4
:104280007B29C4F0BC8DE672FFB7A44B93CC944E4F
:10429000940DB48ED54EB54FA5B3FF5D842E086046
:1042A00088A49865A0C4B105B126B1A8BAABA30C87
:1042B000C55500200000FFFFFFDFFFFFF79D7BCA11
:1042C00062C69C0E93CBFF35D5D06A64B4CDA42DC5
:1042D0008B4BC50FBCCDC52F936A9BEBB4ADDE10E5
:1042E000FF75CDCFB48E7266BCCEDDF0FF94FF7447
:1042F000D5AFC4ADFEF3CD6F832993AAD5F1FF747A
:10430000FF73FF75CD6F49A58B89F6D383ABEE772D
:10431000D50F9B4A8B6ADDAFFF94EE72C52DFF74FB
:10432000D56F836AD531DD10934AA3CBE651D652BF
:10433000936AFED7FF58FF38FF17F737FF37F5D3DB
:10434000D4D07AC8AC6BEE53AC4CC4AE9B69BCAD58
:10435000AC4BEE73FF778BCAAC9072EA5A4749C4F4
:1043600051E641858B099B8C7247BCCEC550C55226
:10437000BD73FFBAFF38D551A3AB936AAC8F6A8681
:104380008308BCAFBC8CC5AFFFD8A40BA44D83ABD6
:10439000AD118B8CDD2FBD0FA4F1FFDEE73B31A407
:1043A0007A28610478839925B147C9A9BA2AAB2D27
:1043B000DE5900200000FFFFFFFFFFFFD67883CA11
:1043C00083AA5A068329DE11FF56B4AD8BA782E774
:1043D000938BBCEEBCEDC50F936AA3EBB4ADDE10BE
:1043E000FF55C58EA44E6A25C4EFDE31FFB4F753E6
:1043F000C52DC4AEFEF3CD4F83098B6ACDB0FF53FC
:10440000FF53FF75BCCD624893A9EE9183ECF6F99A
:10441000D50FABAB832ACD2EFF74EE52C50DFF53E3
:10442000C50E838CE5F3DD0F9BAB9B8BE652CE1163
:104430009B8BFED7FF38FF17FF17F757FF58FE5526
:10444000D4F18B099BEADDF2AC4CDD929329BC8D53
:10445000BCCED5B1BD7041825A4651A561C57287A7
:1044600051C56AEAD50FDD3282A8AC2BC50EA40D6A
:10447000C572FF77FF37EDD3B3EC82E8AC8E8B4A81
:10448000A3ABA3CBBCCDC58FFF97A42BBCCF734AE6
:10449000C5F593CDD50EB48EB533F75CDEDA73CDAA
:1044A000F79CB5948A8A690480A4C1CABA4BB3F058
:1044B000EF1B00200001FFFFFFFFF79EBD94942B30
:1044C000C52F61C56226CD6FE632EE94B4CC6A6426
:1044D000936BC50EC50EC50F938AA3ECB4ADDE1069
:1044E000FF55C56D9C0D6204C4EFE651FFB4F71291
:1044F000BCCCC4AEF6D2C52F7AC88308CD8FFF538B
:10450000FF53FF54AC4B72CA93A9DE508C2DFF5B56
:10451000DD50BC2C7AE9BCCDF733EE31C4ECF71397
:10452000BCCD8BACFE95DD0FA3EC932AE652C5D033
:10453000A3CCFEF7F737FF17FF17F757FF58FEB763
:10454000DD31A38B8BAACD51B48EF6759BAB9BCB83
:10455000AC8DA42CCDF3396259C5932ACC8FDD5292
:104560007AA86AC9EE13D531932A9389CD4F834A2D
:10457000E675F756F736FE55C44E72869BEC9BCC1B
:10458000BC6F6A87BCCDCDB0FF97A40BB4AE7BAB3C
:104590008C4F8BCEBCEEA44DBD94F7BEE6FB8C2FAA
:1045A000EFBCE7BCFF9CB4D2824991879A2AC534FC
:1045B000EF7C08210021F7DEFFFFFFFFA4B1A48CF0
:1045C000C50EBCAF59E6B4CDAC8CCD6FD5CF9BCA70
:1045D0009BCBBCCDC52EC50F938AA3ECB4ADDE102A
:1045E000FF55C56D93EC59E4BCCEDE30FF94EED19F
:1045F000B4ABCCCFF6D2C50E728772C7C56FFF546D
:10460000FF53FF549BEA7AEB8B89DE308C4DFF9C85
:10461000E570CC6D72C9B48BF6F2EE11C4CCEEF23B
:10462000B48C8BADFEF6DCEEAC0C8B09E652BD8F84
:10463000ABEDFEF8FF58FF18FF17F737FF37FEF70F
:10464000E552B40D72C7C571B48EEE76BCCF830847
:104650008B6A8B8A9C4D5A25AC4EDD11DCCFD4AFD2
:104660007AA872E9FF58D552AC0E8328C570730939
:10467000FFBBF777FF98FEB7E55272C88BACA3EE8D
:10468000AC2F2880B46CB50EFF779BEAB4CF9CAFFB
:1046900021024165B52E83AAA533EFDEE6FBBD748A
:1046A000EF7BE77BDF5BF7FEDE388AAB82AADEDAE0
:1046B000F7DE08000000FFFFFFFFFFFFA46EC4EF5E
:1046C000BCCEC4EE41E593ADC4F0BCACBCED9BEBFD
:1046D0008B69BD2DD58FC50E938A9BAABCCCDDCF2F
:1046E000FEF4C50C938C5225BCEEE631FF94E64FE8
:1046F000BC6BBCCFF6B1C52F5A056A67BD4EF6F24A
:10470000FF74FF54938B936A8B4ACDD39C6DFF78D3
:10471000EDF3D4AE7AA8A42CDE52E651BCABF6532E
:10472000A40CA42EF739D511BBCC8B27DE94B4EEA4
:10473000AC6DFF38FF38FF18FF18FF17FF37FF1762
:10474000EDF3CC4D7AC6BD718C2CFF5BCD3341238C
:104750005A4672C8DE329389C4CFCCAEC44CCCEF7B
:10476000936B7AEAFF9BDE978BEC5226730A4164C7
:10477000940FA4B1B595F6B8EDB3A3AB6A68A47075
:10478000942E49A37B88D4B0FF9693CABCAFBD706A
:1047900058A37882B510720650A27B0BCE98F7BD55
:1047A000EF3BEF3BF6DAF71BFFBDCE98B5B5F75DF3
:1047B000FF7E00000000FFFFF7DFF79DA44EC50F4E
:1047C000C4EEC4CE5A8772C9C4F0BCACC4ED8B6AC7
:1047D000938ABD0DD5AFC50E9BCB9389BCCDD5AF0C
:1047E000FEF3C50D830A5225BD0FE611FF94DE2F9F
:1047F000BC8CB48EEE50C54F62266A66B4EDEEB145
:10480000FF74FF347AA7AC0D8B6AC571A48EFF9933
:10481000F654D4CF82E993AADE11E610BCABE5D101
:10482000A3EBB511FF79DD52C40C8B07DE73AC8DA1
:10483000B48EFEF8FF38FF18FF18FF17FF37FF3759
:10484000F634D48E82C79C4D946EFF1A69E638C048
:104850007B4AC531FF5793CAAC0D9B4AABEBF6566A
:10486000C53362AA9CB12922102020C1732B1020CD
:104870000820000000004163BC6EB42D5184ACD20E
:104880008BED8BAA6B06B3CDF6F48B68B48EC5B0F6
:1048900058C378A37C0C8186A0C680845945945067
:1048A000DEF9F7BCE73AEF9CD6D9EF9CFF9DF75DA8
:1048B000FF9E00200000FFFFF7DFEF3B9C4DC50F80
:1048C000C4EEBCCD62A87B0A9BABC4EDC52F8B6A3E
:1048D000938AC50DDDF0C50EA42C8B48BCEDCD4EE2
:1048E000FED3C50D6A675225BCEFE5F0FF73D5CE48
:1048F000BC8C9BECD5CFC52F7AA87287AC6CE650E8
:10490000FF74F6F282A7BC8F82C8B4AFACCFFFB9F8
:10491000F6B5D50F9B6B8B28D5B0DDF0BCABCD2F9A
:104920008349BD51FF99E592C42C8306DE739C0B2D
:10493000C4F0FEF8FF38FF17FF18FF17FF37FF58C6
:10494000FE75DCF082A8A44E942D82C98A88B48FAB
:104950007AE8C510EEB55A248309CD32FF39DE3628
:104960005A89082100001040736C52694A485AEB7A
:10497000632D31E7004108009BCCBCB02880B51303
:1049800072C9AC4D7B479B6BE6948348B48ED612BC
:104990005904808372E98145A043A864990568A3FE
:1049A0005985B574EFBCDF5AEFDCEF5CEEDBFF5DE1
:1049B000EF7D00200000FFFFF7FFE6FA9C2DC50FFA
:1049C000BCCDBCCD5A66A44E7AA7B46BD5918B8B67
:1049D00093ABBCEDE631BCEDAC6D8307BCCDC52D12
:1049E000F693BCED61E55225BCCEDDB0FF53CD8D15
:1049F000BC8D7B09C54DC52F8B2A83099BEBD5D078
:104A0000FF95EEB18AC7C48F82A7AC4DACCFFF58DB
:104A1000FEF7E5B2C44F7A87BCEECD4FBCACC50FF4
:104A20007B28CDF4FF57EDF3BC2C8B48EE95938A91
:104A3000D552FF18FF38FF18FF17FF17FF37FF5831
:104A4000FEB6DD31930A8B8B6A67A38CDD12C4B08E
:104A50007AC7B46D93EB6246E637EEB98BCD18801A
:104A600000000022000018E4949284304A69BE38A5
:104A7000C69AB65A320A08208B8BBCF12881C5959C
:104A80006A87BCAE93EA8B2AD5F28B49BC8DE6933C
:104A9000618580836A2668C3A105A9059862A0A4E0
:104AA00090C57083938DE6FAEFBCEF3BFF7DE6FB8C
:104AB000DF1B00000000FFFFFFFFD6989C2CCD2FCE
:104AC000C4CDBCCD5A65A42E9BAB7AE6BD0F93AC8A
:104AD0009BCCBCCDEE71BCEDB48D82E7B4ADC50D01
:104AE000EE52BCCD62065A66B4AED54FFF34C56DEA
:104AF000BC8D5A46BD0DC50F934A9B8C9349CD4E34
:104B0000FF75EEB182A7CCF093099BEDACEFFF9A55
:104B1000FF38E614D4F182C8BCCFCD4FBCCDC50F51
:104B2000836AEF18FF58F634A38A8308DE3493496A
:104B3000DDB3FEF8FF38FF18FF17FF17F737FF58F0
:104B4000FED6E551932B93AC8B6BDD32D490C48FA2
:104B500072867AE7ACEFB511BD54316500000040B4
:104B60000082004208A4000110A33A085B4DBE5920
:104B7000ADF8BE9B5B6F0841A44FC5323943D637B1
:104B80006A67BC8DA42B72A8B4CE8B49BC6DEED4E1
:104B90006A06886349437904A08398A39924A0E511
:104BA000A864B04570437A8AD6B9F79CF73CD679A9
:104BB000CE5808000000FFFFFFFFD6789C4DCD2F98
:104BC000CD0EBCCD72E77B09C4F07AC6836993AC85
:104BD000938BC4CDEE92BCEDB4AE8308AC4CBCED6F
:104BE000DDD1B4AC6A6762A7B48ECD0EFF54CD6E32
:104BF000BCAE41A4B4CDC50F934AB40E8AE8BCAD97
:104C0000FEF3EEF26A46CD31936B8B4AA48FF739EF
:104C1000E676C5318B2B49425A0472C772868329C6
:104C20005A25C5B4F718F676AC0D8B8ABD318B29A1
:104C3000EE14FF79FF38FF37FF17FF37F717FF57DD
:104C4000FEF7E5719B6B72C8A42DCC8FDCD0BC4EF7
:104C50005182AC4ECDF439841061000000600060D8
:104C600000810062006110C3000000209D13CEBAD5
:104C7000BE38B6387C520800CD93B4D05A47D657C8
:104C80006A87C4AEB46C6AC893AA9BABB44CEED32B
:104C90006A879064586190E4A8C5A0A498C4A0A4B1
:104CA000A8C5A0C5A8C74862CE78F7BDC5D7BDD6F0
:104CB000CE7908000000FFFFFFFFEF1BACAFB46D23
:104CC000C4EEC4CE8BAA6226C510A42B72E772A9CB
:104CD0008B4ACCEEF6B2C50EBCCE93699BCABCED36
:104CE000D570B48C72C86AC7B48ECCCDFF34C54EB3
:104CF000B4AE3142A44BC4EF8AE8C4708AE9AC4C2C
:104D0000DE30F6F27B08C5328B4B624751E56B090A
:104D10005A2651A459E649A45225AC8EB4B09BCC76
:104D2000390241C56AA8938C8B4B8BAC9C4E9BABD4
:104D3000F676FF58FF38FF37FF17FF38F737FF5871
:104D4000FF17E5929B8B72C7CD91D4F0CC4E93297F
:104D50008309AC6F526710400000002008C200C1F8
:104D6000008008C308E308E300600040CE98FFFE1F
:104D7000F7DEF7BE8C921860F697B4CF83CCBD9463
:104D80006AA7C4CEC4AD732A7B08B44EBC4CE6926D
:104D900072C8904498A49863A084A0C5A084A86415
:104DA000A0A49124988671E8E77BC5D6C596BDF787
:104DB000847108000000FFFFFFFFFFFEBD119BAAEA
:104DC000BCADC4EF940B59E4BCAFC52FA44D38E281
:104DD000938BC4CDF6B2C52EBCEF9BAB9369BCCD13
:104DE000C52FB46C7AC96AC7B46DC48CFF14C52DC5
:104DF000B48E290293C9C4EF82C8D4D19B2AAC0BCC
:104E0000CD6EEED149C46AC841434984312341C5BE
:104E100051E6728872AA62A829016AA86A876206A6
:104E2000414362885A4759C638C231025A05A3EC39
:104E3000FF17F736FF37FF38FF17FF58F737FF58D0
:104E4000FF37E592938B6AE7F6B6EDD3C3EDD55203
:104E500093CC622731630000086208A3006000A0C1
:104E600008C10081090208C1216300208C6FFFBDC9
:104E7000FFFEFFFEAD5549C5FF18BD10C5B3B532E5
:104E80007B09C4CEC48D734A7286C4B0BC4CE65153
:104E900073099044A0C4B064B045A0859906A0E50C
:104EA000A063B0C47003BD13D73AAD13D5968C5030
:104EB000849100000020FFFFF7BFFFFFFFFFB574E4
:104EC00083AC9C4EACED5A059BABCD0EBCED8B6913
:104ED0008308C50FF6F4C50FBCCCB46B72A8C531FE
:104EE000BCACB42B7B096A87AC6DBCCCF6B2CD6E82
:104EF000938A61E59B6ABC8F82C8D512BC508B0A2D
:104F0000834B738A2923494561C6496461E5BC0E18
:104F1000C42DD510DCF0E5319B4A938ABD309BCB84
:104F2000A38AE531D48DD53193AD624830C193ABBE
:104F3000FF18FF38FF17FF37FF37FF57FF17FF171F
:104F4000FEF7E5B293ED8349FF17FF36D633FF59DD
:104F5000730A41A610420000088108E200C100A1C6
:104F6000090200C2112309E4126608E220E3F77C7B
:104F7000FFFDFFFCA4F1944DFF58DE13EEB6ACAE7E
:104F80008328C50FD4D062878368BD0DB42CD5B2F9
:104F900093E98042A8A4A8A498C490C398C3A0C5CC
:104FA000A0A498436249EF7CA533A574A5747ACC7C
:104FB000A3D000600000FFFFFFFFFFDFFFFFFFDE69
:104FC000CE16734A7B897B0982E9BCADBCED9C0C93
:104FD0008329CD2FEED3BCCECD2EC4ED7AC8B48EAE
:104FE000B4ACB42B832A72A89BEBB48CE610DDD052
:104FF0009BCB7AC98309CD72832ABCF18B0A20002E
:10500000416283AB6AC99BCDE5F6938C6A06CCB04E
:10501000D4F0C48ECC8ECC6ECCAF7266C5308B69AA
:105020009B6AD48FDCADCCAF9BAD7B0A834AD59213
:10503000FF38FF18FF37FF37FF37FF57FF17FF17FE
:10504000FEF7E5D38BCC93CBFF99F716FFB9C5924A
:1050500020A0188118A22124004000C100C109230A
:1050600000C200A221A51A6722E929E61881C5D647
:10507000FFFEFFFDBDB4CDD4FF38FF17FF79940CC0
:105080009BEBB4ADCC8E7B499C2ACD8FA3CBD5B105
:105090009C6B7842A884A083A0E490A3A0E4A084A1
:1050A000A0C57863B554B574A554AD7472AB932E96
:1050B0009C1000200000FFDFFFFFFFDFFFFFFFFF6E
:1050C000FFDEDEB9840D62895184BCEFB4EE93EC4F
:1050D0007AC7CD2FDE52A44CD56FCD6E83299BECC1
:1050E000BCEDB44C834A7AE98B8AC50EDDCFDDD0A6
:1050F0008B498B4B8369BD514A0549A451837AC8BA
:105100008B6ACDB2B46EA44DE6559B6B61A4B44ED0
:10511000C4CFD4CFD4CFC44EC48F82E8A42D8B6A21
:10512000ABCBED32D46CDD10ABED59C5934BE6142F
:10513000FF18FF59FF37FF37FF37FF37FF17FF37DC
:10514000FEF7E5F393ECB4F0FF79FF17E6757B29E2
:1051500093ED08007BCE52CA00400923092309229F
:1051600000C108A11964334B3B8C2A0700009491BD
:10517000FFFEF7DDEF19FF59FF17FF37FF797B6956
:10518000AC8EBCCEC48D9C0DB4EDE6729BCAC550EE
:10519000B4EE7042A8C4A063A8C498A3A0A4B0A50C
:1051A00080837207C637ACF3A573836D89E9A34E7C
:1051B0008C5000000000FFFFFFFFFFDFFFFFF79EA6
:1051C000F7BEFFFFD6D9524928A18B89B4EF9C2D99
:1051D0007286CD2ED61193CAD56FDDF093AB8B6A54
:1051E000C50EBC6D7B098B6B7AE8BCEEC50DDDD1BD
:1051F00093AA9BED7B495A4628E1ACB0DDD4CCF0B4
:105200007A86B48EBC8D8BCAEEB6BC6E61838B6A17
:10521000AC8E9B4A8AE89B4A82A8728841224963E5
:1052200082A8A34BCC2BD4EF9B8B4922B46EFEF704
:10523000FF17F6F7FF37FF37FF37FF37FF37FF3727
:10524000FEF6E5F393ECE676F6F7FF58D5F3DE15B8
:10525000836B30E2C6575B0A004019C519E50102AD
:10526000090208A111244C0E54B05BAD5AEBC5F7EE
:10527000FFFEFFFEFF7AFF38FF17FF37FF597B491C
:10528000A44DBCAEC4ADAC8EC52EFF34A42BBCEE79
:10529000BD6F6882A8E4A063A083A0E4A063B0C649
:1052A00068A39CB0AD53B5947BAD6166BA8D9AEDA1
:1052B000949100200000FFDEFFFFFFDFFFFFFFFFF4
:1052C000FFFFF7BFFFFF736D62684981A48EB4D002
:1052D0006A86CD4ED5F193CACD6EEE72A44D7B2871
:1052E000BCCDBC6D72E88B8B59E4B4AEC50EE61232
:1052F00093AA7AC959A372A8730AD5D5EE55CCCF13
:10530000B3CB8A87BCAE7B48EED7FED882C983ABCD
:10531000F739F677EE77F677EE57E6579C2F51E59B
:105320009BACBC6FAB89B42D7AA851A4D552FED7E3
:10533000FEF7FF59FF37FF37FF37FF37FF37FF37DC
:10534000FED6E613ACAFF6F8FF18FF38FF18EEB73D
:105350004963A44FEF9B7BEE00802A2732E909A422
:1053600000E110C109233B8C6D73BEDAF7BEFFFF6D
:10537000F7BDFFFEFF59F6F6FEF6FF57FF587B29F3
:10538000A42CBC8DBCCDB48DCD4EFFB5BCCEAC6CC9
:10539000C5D168C2A0A4A084A083A8E5A0A58884E4
:1053A0008249B616B553844F51449167AA6B8A8BD4
:1053B000ACD300400820FFFFFFFFFFFFFFFFFFFF10
:1053C000FFFFFFFFF7DF83AEACB051C27B29A44FD4
:1053D00072A7C54ECDF193A9CD4DF6D3B4AE834996
:1053E000AC4BC4CF73097B094962B4CFC50EB48CF2
:1053F0006A866226D4EF8AE97B2BB4D1FF18D530B8
:10540000CCAF92C9AC8E7B499C6FBD335A481860B3
:1054100039A539643963396462686ACA62CA41C5A8
:10542000A490FF1BFEB7EE568B8C830AE634FF3741
:10543000FF58FF38FF37FF37FF37FF37FF37FF379A
:10544000FED6EE54DE34FF18FF38FEF7FF58A44DA9
:10545000A42DFF18F7BBB59300402A27542E3BAC70
:1054600000E111020923336B75F4D7FEFFFFEF9DB6
:10547000F7BDFFDDFF38FF37F6D5FF57F73872E786
:10548000B4AEC4CDB4ACB48DDD8FFFB5CD90A40A5D
:10549000CE326943A083A0C4A0A4A084A0E5608309
:1054A000B4D2B5D59CD152277105A9A9922982CB36
:1054B000BD3500200000FFFFFFFFF7BEFFFFFFFF2D
:1054C000FFFFFFFFFFFF838DAC8F832851E47B4CF0
:1054D0006A87C54ECDF18B89C50CFF13C5309C0B77
:1054E0009388CD107B297B2A51A4A42DA42B8B4813
:1054F0007AC78B8BE5308AE8834C940DFF59E633ED
:10550000C4F0BC9141C5628920A2000000200000C7
:105510000000004000200860080008200020000073
:1055200018C251E7940DC594ACF2DE36FF38FF1770
:10553000FF37F737FF17FF17FF57FF37FF37FF37E3
:10554000FF17FED6F717FF58FEF7FF17FF38E634B0
:10555000DE13FF18F79AEEF918A119A55CB06511D2
:1055600001830060114343EC6DB39E367C507BEEAB
:10557000FFDDFF9CFEF7FF37FEF6FF58F7186AE8DD
:10558000BCCEC4ADB4CBB46CEDD0FF94E6739BC974
:10559000D67269A4A08498C4A0C4A04488A47A89BF
:1055A000CE16ACD273CD6125A988996782697B4CF0
:1055B000B53500000021FFFFFFFFFFFFFFFEFFFEEC
:1055C000FFFFFFDEFFBEA470A40DAC6C51E46ACAFD
:1055D00049A4CD8FDE538B89C50CFF14CD91AC8DC2
:1055E0007AE6CCF07B298BAC6A47938BAC6DBCCE52
:1055F000AC4D8B4AE50FBC6E62686B4AFF99FF5752
:1056000093CB390300005A2828E40021006110627E
:10561000002100810080002008627C108C9229A665
:1056200000000800188029232903ACF1F6B7FEF624
:10563000FF57FF78FF17FF17FF57FF37FF37FF5858
:10564000FF37FF17FF58FF37FF37FF17FF17FEF72A
:10565000FF17FF17F739FFDC39A50903546F7E14D4
:1056600043AB090122065CCF5D516CF0216421221D
:10567000FFDCFF9CFEF6FEF5FF36FF17E6D773084A
:10568000B4ADCCCDBCECB44CF5F0F773F6F593A902
:10569000D67369E5A06390C3A0E4B0A57863B512A2
:1056A000B5F6AC3163AC8967A0C699C87A287B8D02
:1056B000A51410010000FFFFFFFFFFFFFFFFFFFF2A
:1056C000FFFFFFFFFFFFAD5483ABC50E9368412280
:1056D0005206B551E6928368BD0FFF14E630B46CF4
:1056E0009BCB9BCC93CE6AC48BCB72CBC4CEC4CCA9
:1056F000B42C8B29F50FD4EF7B2949E5ACD2524964
:105700000820002000000040194300C108A10060EB
:1057100000C100E100C108C1002031C7C659BE3830
:105720004AAA00414986C554C5948BECB530F6F7BA
:10573000FF17FF38FF37FF37FF37FF37FF37FF37D8
:10574000FF37FF37FF37FF37FF37FF37FF37FF37A9
:10575000FF37FF37F738FFBB8C6F00603AEB6D32D5
:1057600065724CEF4D714CF06D746CB108E25AC922
:10577000FFDBFF38FF38FF17FF37FF38E696730867
:10578000BCAECCEDCCECB44BE612FF54FF539C2ADC
:10579000D5B37AC8886298E4A88490A46A47D6B939
:1057A000ACD36B6DA32B9125A0E691876A287B6D06
:1057B000ACF400000000FFFFFFFFFFFFFFFFFFFF53
:1057C000FFFFFFFFF77EE6FB7329C50EA40B6A6798
:1057D0003922BD50E6B28348BCEEFEF3F6B2BCED12
:1057E000B46E8B699BED51E393EC72CAAC2DC4ACE3
:1057F000BCCE7AC8CC2DFE76BD5220E20000080057
:10580000000042890820006008E2008008A108A189
:1058100000C100C100A1112311240000740FDF5C3E
:10582000BE388C9130A251C6BD52FFBAFF58F7174F
:10583000FF79F6D6FF37FF37FF37FF37FF37FF37E0
:10584000FF37FF37FF37FF37FF37FF37FF37FF37A8
:10585000FF37FF37F717FFBACE56006019855C4F48
:1058600075726D72655175B37D53430B00406309CA
:10587000FF59FF38FF38FF17FF17FF38E697730807
:10588000BCCECCEDD56EB44CD5B1FF54FF74A44B57
:10589000CD928B4A8862A0E5A8C57062AC90D6B95B
:1058A0007B6D8C5189E790E5A90689877249838DC4
:1058B000A4F400000000FFFFFFFFFFFFFFFFFFFF5A
:1058C000FFFFFFFFFFFFE6FC62A8BD0FB48D9BAC9E
:1058D00051C4C52FE6B27B27B4CEF6B3FF13C50E75
:1058E000CD7193899C0D41637B499C0D82C9C4ADE8
:1058F000C4ED72A8C44EE5D4ACD10020004118E438
:105900008C928CB20000088100E1008000A108C2E6
:1059100000C10102090200C2112300404A89F7BDFB
:10592000F79CE73AD5D5940D7308A48DF6F6FF7968
:10593000FEF7FF38FF37FF37FF37FF37FF37FF37F7
:10594000FF37FF37FF37FF37FF37FF37FF37FF37A7
:10595000FF37FF37FF37FF58FFDC7BAD0020326891
:105960005C2E6CAF648E5C0C328710E131A4BD728A
:10597000FF9AF6D6FF38FF17FF17FF38E6977B2907
:10598000BCCECCEDE5F0B46CC54FFF54FF94ACCC6D
:10599000C531A40D7841B8C6906369A5EF1AB594D6
:1059A0006B4CA49278A398A4A92689667269838D0A
:1059B000A4D300000000FFFFFFFFFFFFFFFFFFFF7A
:1059C000FFFFFFFFFFDFFFFF9CB19C2CC510A42E43
:1059D0006225CD2EEED38348B4CEE651FF54C50DDB
:1059E000E633B4CD8B8A51E66287BD306A47AC2C72
:1059F000CD4F72C9B42EB4B128C200210000743159
:105A0000DF7E638E000008C20102010200E108C2CD
:105A100008E2090211431184096409020060D67882
:105A2000FFFDFFDCFF9AF738E695E674F6F6FF38DF
:105A3000FF38FF38FF37FF37FF37FF37FF37FF37B4
:105A4000FF37FF37FF37FF37FF37FF37FF37FF37A6
:105A5000FF37FF37FF37FEF6FF39CE1510800040C5
:105A6000196321843A4542456B6AB593F739FF9A29
:105A7000FF17FF37FF38FF17FF17FF38DE76730871
:105A8000BCCECCEDEE31B46CC50EFF54FF94BD4ED0
:105A9000ACAEAC8E7062B8C670639C90F79C7BCD48
:105AA00094D18B2C8863A8A5B12781466A487B6D69
:105AB000A4D300000000FFFFFFFFFFFFFFFFFFFF79
:105AC000FFFFFFFFFFFFFFFFCE376AE8834A93CD5A
:105AD00072A7BCCCF7148348B4CFDE31FF75BD2D5F
